{
  "contractName": "MarketPlace",
  "abi": [
    {
      "inputs": [],
      "stateMutability": "nonpayable",
      "type": "constructor"
    },
    {
      "anonymous": false,
      "inputs": [
        {
          "indexed": false,
          "internalType": "address",
          "name": "nftContract",
          "type": "address"
        },
        {
          "indexed": false,
          "internalType": "address",
          "name": "nftOwner",
          "type": "address"
        },
        {
          "indexed": false,
          "internalType": "address",
          "name": "highestBidAddress",
          "type": "address"
        },
        {
          "indexed": false,
          "internalType": "uint256",
          "name": "tokenId",
          "type": "uint256"
        },
        {
          "indexed": false,
          "internalType": "uint256",
          "name": "createdAt",
          "type": "uint256"
        },
        {
          "indexed": false,
          "internalType": "uint256",
          "name": "endTime",
          "type": "uint256"
        },
        {
          "indexed": false,
          "internalType": "uint256",
          "name": "highestBid",
          "type": "uint256"
        },
        {
          "indexed": false,
          "internalType": "bool",
          "name": "isCancel",
          "type": "bool"
        }
      ],
      "name": "AuctionCreated",
      "type": "event"
    },
    {
      "inputs": [
        {
          "internalType": "uint256",
          "name": "",
          "type": "uint256"
        }
      ],
      "name": "auctions",
      "outputs": [
        {
          "internalType": "address",
          "name": "nftContract",
          "type": "address"
        },
        {
          "internalType": "address",
          "name": "nftOwner",
          "type": "address"
        },
        {
          "internalType": "address",
          "name": "highestBidAddress",
          "type": "address"
        },
        {
          "internalType": "uint256",
          "name": "tokenId",
          "type": "uint256"
        },
        {
          "internalType": "uint256",
          "name": "createdAt",
          "type": "uint256"
        },
        {
          "internalType": "uint256",
          "name": "endTime",
          "type": "uint256"
        },
        {
          "internalType": "uint256",
          "name": "highestBid",
          "type": "uint256"
        },
        {
          "internalType": "bool",
          "name": "isCancel",
          "type": "bool"
        }
      ],
      "stateMutability": "view",
      "type": "function",
      "constant": true
    },
    {
      "inputs": [],
      "name": "auctionsCount",
      "outputs": [
        {
          "internalType": "uint256",
          "name": "_value",
          "type": "uint256"
        }
      ],
      "stateMutability": "view",
      "type": "function",
      "constant": true
    },
    {
      "stateMutability": "payable",
      "type": "receive",
      "payable": true
    },
    {
      "inputs": [
        {
          "internalType": "address",
          "name": "_nftContract",
          "type": "address"
        },
        {
          "internalType": "uint256",
          "name": "_tokenId",
          "type": "uint256"
        },
        {
          "internalType": "uint256",
          "name": "_startingBid",
          "type": "uint256"
        },
        {
          "internalType": "uint256",
          "name": "_endTime",
          "type": "uint256"
        }
      ],
      "name": "addAuction",
      "outputs": [],
      "stateMutability": "payable",
      "type": "function",
      "payable": true
    },
    {
      "inputs": [
        {
          "internalType": "uint256",
          "name": "_auctionId",
          "type": "uint256"
        },
        {
          "internalType": "uint256",
          "name": "_newBid",
          "type": "uint256"
        }
      ],
      "name": "placeBid",
      "outputs": [],
      "stateMutability": "payable",
      "type": "function",
      "payable": true
    },
    {
      "inputs": [
        {
          "internalType": "uint256",
          "name": "_auctionId",
          "type": "uint256"
        }
      ],
      "name": "endAuction",
      "outputs": [],
      "stateMutability": "nonpayable",
      "type": "function"
    },
    {
      "inputs": [
        {
          "internalType": "uint256",
          "name": "_auctionId",
          "type": "uint256"
        }
      ],
      "name": "cancelAuction",
      "outputs": [],
      "stateMutability": "nonpayable",
      "type": "function"
    },
    {
      "inputs": [],
      "name": "contractBalance",
      "outputs": [
        {
          "internalType": "uint256",
          "name": "",
          "type": "uint256"
        }
      ],
      "stateMutability": "view",
      "type": "function",
      "constant": true
    }
  ],
  "bytecode": "0x608060405234801561001057600080fd5b506001600081905550660ffcb9e57d4000600281905550611834806100366000396000f3fe6080604052600436106100745760003560e01c806396b5a7551161004e57806396b5a7551461010b578063ae2bb07314610134578063b830620a14610150578063b9a2de3a1461017b5761007b565b8063571a26a01461008057806357c90de5146100c45780638b7afe2e146100e05761007b565b3661007b57005b600080fd5b34801561008c57600080fd5b506100a760048036038101906100a29190610f61565b6101a4565b6040516100bb989796959493929190610ff9565b60405180910390f35b6100de60048036038101906100d99190611077565b610259565b005b3480156100ec57600080fd5b506100f56105d9565b60405161010291906110b7565b60405180910390f35b34801561011757600080fd5b50610132600480360381019061012d9190610f61565b6105e1565b005b61014e600480360381019061014991906110fe565b610819565b005b34801561015c57600080fd5b50610165610b80565b60405161017291906110b7565b60405180910390f35b34801561018757600080fd5b506101a2600480360381019061019d9190610f61565b610b8c565b005b60036020528060005260406000206000915090508060000160009054906101000a900473ffffffffffffffffffffffffffffffffffffffff16908060010160009054906101000a900473ffffffffffffffffffffffffffffffffffffffff16908060020160009054906101000a900473ffffffffffffffffffffffffffffffffffffffff16908060030154908060040154908060050154908060060154908060070160009054906101000a900460ff16905088565b610261610ea9565b600060036000848152602001908152602001600020905060008160070160009054906101000a900460ff16905060001515811515146102d5576040517f08c379a00000000000000000000000000000000000000000000000000000000081526004016102cc906111c2565b60405180910390fd5b60008260010160009054906101000a900473ffffffffffffffffffffffffffffffffffffffff16905060008360020160009054906101000a900473ffffffffffffffffffffffffffffffffffffffff169050600084600601549050808611610372576040517f08c379a000000000000000000000000000000000000000000000000000000000815260040161036990611254565b60405180910390fd5b8273ffffffffffffffffffffffffffffffffffffffff163373ffffffffffffffffffffffffffffffffffffffff16036103e0576040517f08c379a00000000000000000000000000000000000000000000000000000000081526004016103d7906112e6565b60405180910390fd5b8173ffffffffffffffffffffffffffffffffffffffff168373ffffffffffffffffffffffffffffffffffffffff16146104c85760008273ffffffffffffffffffffffffffffffffffffffff168260405161043990611337565b60006040518083038185875af1925050503d8060008114610476576040519150601f19603f3d011682016040523d82523d6000602084013e61047b565b606091505b5050905060011515811515146104c6576040517f08c379a00000000000000000000000000000000000000000000000000000000081526004016104bd90611398565b60405180910390fd5b505b60003073ffffffffffffffffffffffffffffffffffffffff16876040516104ee90611337565b60006040518083038185875af1925050503d806000811461052b576040519150601f19603f3d011682016040523d82523d6000602084013e610530565b606091505b50509050600115158115151461057b576040517f08c379a000000000000000000000000000000000000000000000000000000000815260040161057290611404565b60405180910390fd5b338660020160006101000a81548173ffffffffffffffffffffffffffffffffffffffff021916908373ffffffffffffffffffffffffffffffffffffffff1602179055508686600601819055505050505050506105d5610ef8565b5050565b600047905090565b6000600360008381526020019081526020016000209050600081600501549050804210610643576040517f08c379a000000000000000000000000000000000000000000000000000000000815260040161063a90611470565b60405180910390fd5b60008260010160009054906101000a900473ffffffffffffffffffffffffffffffffffffffff1690508073ffffffffffffffffffffffffffffffffffffffff163373ffffffffffffffffffffffffffffffffffffffff16146106da576040517f08c379a00000000000000000000000000000000000000000000000000000000081526004016106d1906114dc565b60405180910390fd5b60008360020160009054906101000a900473ffffffffffffffffffffffffffffffffffffffff1690506000846006015490508173ffffffffffffffffffffffffffffffffffffffff168373ffffffffffffffffffffffffffffffffffffffff16146107f45760008273ffffffffffffffffffffffffffffffffffffffff168260405161076590611337565b60006040518083038185875af1925050503d80600081146107a2576040519150601f19603f3d011682016040523d82523d6000602084013e6107a7565b606091505b5050905060011515811515146107f2576040517f08c379a00000000000000000000000000000000000000000000000000000000081526004016107e990611398565b60405180910390fd5b505b60018560070160006101000a81548160ff021916908315150217905550505050505050565b6000821161085c576040517f08c379a00000000000000000000000000000000000000000000000000000000081526004016108539061156e565b60405180910390fd5b60025434146108a0576040517f08c379a000000000000000000000000000000000000000000000000000000000815260040161089790611600565b60405180910390fd5b600081116108e3576040517f08c379a00000000000000000000000000000000000000000000000000000000081526004016108da9061166c565b60405180910390fd5b8373ffffffffffffffffffffffffffffffffffffffff166323b872dd3330866040518463ffffffff1660e01b81526004016109209392919061168c565b600060405180830381600087803b15801561093a57600080fd5b505af115801561094e573d6000803e3d6000fd5b5050505061095c6001610f02565b60006109686001610f18565b90506000824261097891906116f2565b905060006040518061010001604052808873ffffffffffffffffffffffffffffffffffffffff1681526020013373ffffffffffffffffffffffffffffffffffffffff1681526020013373ffffffffffffffffffffffffffffffffffffffff168152602001878152602001428152602001838152602001868152602001600015158152509050806003600085815260200190815260200160002060008201518160000160006101000a81548173ffffffffffffffffffffffffffffffffffffffff021916908373ffffffffffffffffffffffffffffffffffffffff16021790555060208201518160010160006101000a81548173ffffffffffffffffffffffffffffffffffffffff021916908373ffffffffffffffffffffffffffffffffffffffff16021790555060408201518160020160006101000a81548173ffffffffffffffffffffffffffffffffffffffff021916908373ffffffffffffffffffffffffffffffffffffffff160217905550606082015181600301556080820151816004015560a0820151816005015560c0820151816006015560e08201518160070160006101000a81548160ff0219169083151502179055509050507fcab49d6fc275998368dc0831dfbb57c1598282770899d45e38ce7096fad9ec418733338942878b6000604051610b6f989796959493929190610ff9565b60405180910390a150505050505050565b60018060000154905081565b610b94610ea9565b600060036000838152602001908152602001600020604051806101000160405290816000820160009054906101000a900473ffffffffffffffffffffffffffffffffffffffff1673ffffffffffffffffffffffffffffffffffffffff1673ffffffffffffffffffffffffffffffffffffffff1681526020016001820160009054906101000a900473ffffffffffffffffffffffffffffffffffffffff1673ffffffffffffffffffffffffffffffffffffffff1673ffffffffffffffffffffffffffffffffffffffff1681526020016002820160009054906101000a900473ffffffffffffffffffffffffffffffffffffffff1673ffffffffffffffffffffffffffffffffffffffff1673ffffffffffffffffffffffffffffffffffffffff168152602001600382015481526020016004820154815260200160058201548152602001600682015481526020016007820160009054906101000a900460ff161515151581525050905060008160a001519050804211610d47576040517f08c379a0000000000000000000000000000000000000000000000000000000008152600401610d3e90611772565b60405180910390fd5b60008260c0015190506000836060015190506000846040015190506000856020015190506000866000015190508073ffffffffffffffffffffffffffffffffffffffff166323b872dd3085876040518463ffffffff1660e01b8152600401610db19392919061168c565b600060405180830381600087803b158015610dcb57600080fd5b505af1158015610ddf573d6000803e3d6000fd5b5050505060008273ffffffffffffffffffffffffffffffffffffffff1686604051610e0990611337565b60006040518083038185875af1925050503d8060008114610e46576040519150601f19603f3d011682016040523d82523d6000602084013e610e4b565b606091505b505090506001151581151514610e96576040517f08c379a0000000000000000000000000000000000000000000000000000000008152600401610e8d90611398565b60405180910390fd5b5050505050505050610ea6610ef8565b50565b600260005403610eee576040517f08c379a0000000000000000000000000000000000000000000000000000000008152600401610ee5906117de565b60405180910390fd5b6002600081905550565b6001600081905550565b6001816000016000828254019250508190555050565b600081600001549050919050565b600080fd5b6000819050919050565b610f3e81610f2b565b8114610f4957600080fd5b50565b600081359050610f5b81610f35565b92915050565b600060208284031215610f7757610f76610f26565b5b6000610f8584828501610f4c565b91505092915050565b600073ffffffffffffffffffffffffffffffffffffffff82169050919050565b6000610fb982610f8e565b9050919050565b610fc981610fae565b82525050565b610fd881610f2b565b82525050565b60008115159050919050565b610ff381610fde565b82525050565b60006101008201905061100f600083018b610fc0565b61101c602083018a610fc0565b6110296040830189610fc0565b6110366060830188610fcf565b6110436080830187610fcf565b61105060a0830186610fcf565b61105d60c0830185610fcf565b61106a60e0830184610fea565b9998505050505050505050565b6000806040838503121561108e5761108d610f26565b5b600061109c85828601610f4c565b92505060206110ad85828601610f4c565b9150509250929050565b60006020820190506110cc6000830184610fcf565b92915050565b6110db81610fae565b81146110e657600080fd5b50565b6000813590506110f8816110d2565b92915050565b6000806000806080858703121561111857611117610f26565b5b6000611126878288016110e9565b945050602061113787828801610f4c565b935050604061114887828801610f4c565b925050606061115987828801610f4c565b91505092959194509250565b600082825260208201905092915050565b7f546869732061756374696f6e206861732063616e63656c640000000000000000600082015250565b60006111ac601883611165565b91506111b782611176565b602082019050919050565b600060208201905081810360008301526111db8161119f565b9050919050565b7f596f757220626964206d757374206265206d6f7265207468616e20746865206860008201527f6967686573742062696420707269636500000000000000000000000000000000602082015250565b600061123e603083611165565b9150611249826111e2565b604082019050919050565b6000602082019050818103600083015261126d81611231565b9050919050565b7f596f752061726520746865206f776e6572206f6620746869732061756374696f60008201527f6e00000000000000000000000000000000000000000000000000000000000000602082015250565b60006112d0602183611165565b91506112db82611274565b604082019050919050565b600060208201905081810360008301526112ff816112c3565b9050919050565b600081905092915050565b50565b6000611321600083611306565b915061132c82611311565b600082019050919050565b600061134282611314565b9150819050919050565b7f5472616e736665726564206661696c6564000000000000000000000000000000600082015250565b6000611382601183611165565b915061138d8261134c565b602082019050919050565b600060208201905081810360008301526113b181611375565b9050919050565b7f5472616e736665726564206661696c6564320000000000000000000000000000600082015250565b60006113ee601283611165565b91506113f9826113b8565b602082019050919050565b6000602082019050818103600083015261141d816113e1565b9050919050565b7f41756374696f6e206861732066696e6973686564000000000000000000000000600082015250565b600061145a601483611165565b915061146582611424565b602082019050919050565b600060208201905081810360008301526114898161144d565b9050919050565b7f596f7520617265206e6f74207468652061756374696f6e2773206f776e657200600082015250565b60006114c6601f83611165565b91506114d182611490565b602082019050919050565b600060208201905081810360008301526114f5816114b9565b9050919050565b7f5374617274696e6720626964206d757374206265206174206c65617374206f6e60008201527f6520776569210000000000000000000000000000000000000000000000000000602082015250565b6000611558602683611165565b9150611563826114fc565b604082019050919050565b600060208201905081810360008301526115878161154b565b9050919050565b7f5072696365206d75737420626520657175616c20746f206c697374696e67207060008201527f7269636521000000000000000000000000000000000000000000000000000000602082015250565b60006115ea602583611165565b91506115f58261158e565b604082019050919050565b60006020820190508181036000830152611619816115dd565b9050919050565b7f4475726174696f6e2063616e206e6f74206265207a65726f2100000000000000600082015250565b6000611656601983611165565b915061166182611620565b602082019050919050565b6000602082019050818103600083015261168581611649565b9050919050565b60006060820190506116a16000830186610fc0565b6116ae6020830185610fc0565b6116bb6040830184610fcf565b949350505050565b7f4e487b7100000000000000000000000000000000000000000000000000000000600052601160045260246000fd5b60006116fd82610f2b565b915061170883610f2b565b92508282019050808211156117205761171f6116c3565b5b92915050565b7f41756374696f6e20686173206e6f742066696e69736865642079657400000000600082015250565b600061175c601c83611165565b915061176782611726565b602082019050919050565b6000602082019050818103600083015261178b8161174f565b9050919050565b7f5265656e7472616e637947756172643a207265656e7472616e742063616c6c00600082015250565b60006117c8601f83611165565b91506117d382611792565b602082019050919050565b600060208201905081810360008301526117f7816117bb565b905091905056fea26469706673582212205314703e0785d0b2449b185870e3a3df2b8754acaa15abc069e38ef82b0d918b64736f6c63430008110033",
  "immutableReferences": {},
  "source": "//SPDX-License-Identifier: MIT\npragma solidity ^0.8.0;\n\nimport \"@openzeppelin/contracts/token/ERC721/IERC721.sol\";\nimport \"@openzeppelin/contracts/security/ReentrancyGuard.sol\";\nimport \"@openzeppelin/contracts/utils/Counters.sol\";\n\ncontract MarketPlace is ReentrancyGuard {\n    \n    using Counters for Counters.Counter;\n    Counters.Counter public auctionsCount;\n\n    struct EachAuction {\n        address nftContract;\n        address nftOwner;\n        address highestBidAddress;\n        uint256 tokenId;\n        uint256 createdAt;\n        uint256 endTime;\n        uint256 highestBid;\n        bool isCancel;\n    }\n\n    uint256 internal listingPrice;\n    mapping(uint256 => EachAuction) public auctions;\n\n    event AuctionCreated(\n        address nftContract,\n        address nftOwner,\n        address highestBidAddress,\n        uint256 tokenId,\n        uint256 createdAt,\n        uint256 endTime,\n        uint256 highestBid,\n        bool isCancel\n    );\n\n    constructor() {\n        listingPrice = 0.0045 ether;\n    }\n\n    function addAuction(\n        address _nftContract,\n        uint256 _tokenId,\n        uint256 _startingBid,\n        uint256 _endTime\n    ) external payable {\n        require(_startingBid > 0, \"Starting bid must be at least one wei!\");\n\n        require(\n            msg.value == listingPrice,\n            \"Price must be equal to listing price!\"\n        );\n\n        require(_endTime > 0, \"Duration can not be zero!\");\n\n        IERC721(_nftContract).transferFrom(msg.sender, address(this), _tokenId);\n\n        auctionsCount.increment();\n        uint256 currentId = auctionsCount.current();\n        uint256 endTime = block.timestamp + _endTime;\n\n        EachAuction memory newAuction = EachAuction(\n            _nftContract,\n            msg.sender,\n            msg.sender,\n            _tokenId,\n            block.timestamp,\n            endTime,\n            _startingBid,\n            false\n        );\n        auctions[currentId] = newAuction;\n\n        emit AuctionCreated(\n            _nftContract,\n            msg.sender,\n            msg.sender,\n            _tokenId,\n            block.timestamp,\n            endTime,\n            _startingBid,\n            false\n        );\n    } \n    \n\n    function placeBid(uint256 _auctionId , uint256 _newBid) external payable nonReentrant {\n        \n        EachAuction storage theAuction = auctions[_auctionId];\n        bool isCancel = theAuction.isCancel;\n        require(isCancel == false , \"This auction has canceld\");\n        address auctionOwner = theAuction.nftOwner;\n        address highestBidAddress = theAuction.highestBidAddress;\n        uint256 highestBid = theAuction.highestBid;\n\n        require(_newBid > highestBid , \"Your bid must be more than the highest bid price\");\n        require(msg.sender != auctionOwner , \"You are the owner of this auction\");\n\n        if (auctionOwner != highestBidAddress) {\n            (bool success, ) = payable(highestBidAddress).call{value: highestBid}(\"\");\n            require(success == true, \"Transfered failed\");\n        }\n\n        (bool success1, ) = payable(address(this)).call{value: _newBid}(\"\");\n        require(success1 == true, \"Transfered failed2\");\n\n        theAuction.highestBidAddress = msg.sender;\n        theAuction.highestBid = _newBid;\n\n    }\n\n\n    function endAuction(uint256 _auctionId) external nonReentrant{\n        EachAuction memory theAuction = auctions[_auctionId];\n        \n        uint256 endTime = theAuction.endTime;\n        require(block.timestamp > endTime , \"Auction has not finished yet\");\n        \n    \n        uint256 highestBid = theAuction.highestBid;\n        uint256 tokenId = theAuction.tokenId;\n        address highestBidAddress = theAuction.highestBidAddress;\n        address auctionOwner = theAuction.nftOwner;\n        address nftContract = theAuction.nftContract;\n        \n        IERC721(nftContract).transferFrom(address(this), highestBidAddress, tokenId);\n        \n        (bool success1, ) = payable(auctionOwner).call{value: highestBid}(\"\");\n        require(success1 == true, \"Transfered failed\");\n    }\n\n    function cancelAuction(uint256 _auctionId) external {\n        \n        EachAuction storage theAuction = auctions[_auctionId];  \n        uint256 endTime = theAuction.endTime;\n        require(block.timestamp < endTime , \"Auction has finished\");\n        \n        address auctionOwner = theAuction.nftOwner;\n        require(msg.sender == auctionOwner , \"You are not the auction's owner\");\n\n        address highestBidAddress = theAuction.highestBidAddress;\n        uint256 highestBid = theAuction.highestBid;\n        \n        if (auctionOwner != highestBidAddress) {\n            (bool success, ) = payable(highestBidAddress).call{value: highestBid}(\"\");\n            require(success == true, \"Transfered failed\");\n        }\n\n        theAuction.isCancel = true;\n    }\n\n    function contractBalance() public view returns(uint256) {\n        return address(this).balance;\n    }\n\n    // solhint-disable-next-line\n    receive() external payable {}\n}",
  "sourcePath": "/Users/istore/Desktop/SmartContracts/contracts/MarketPlace.sol",
  "compiler": {
    "name": "solc",
    "version": "0.8.17+commit.8df45f5f.Emscripten.clang"
  },
  "schemaVersion": "3.4.3",
  "updatedAt": "2023-01-19T19:54:55.685Z",
  "networkType": "ethereum",
  "devdoc": {
    "kind": "dev",
    "methods": {},
    "version": 1
  },
  "userdoc": {
    "kind": "user",
    "methods": {},
    "version": 1
  }
}