{
  "contractName": "NftCollection",
  "abi": [
    {
      "inputs": [],
      "stateMutability": "nonpayable",
      "type": "constructor"
    },
    {
      "anonymous": false,
      "inputs": [
        {
          "indexed": true,
          "internalType": "address",
          "name": "owner",
          "type": "address"
        },
        {
          "indexed": true,
          "internalType": "address",
          "name": "approved",
          "type": "address"
        },
        {
          "indexed": true,
          "internalType": "uint256",
          "name": "tokenId",
          "type": "uint256"
        }
      ],
      "name": "Approval",
      "type": "event"
    },
    {
      "anonymous": false,
      "inputs": [
        {
          "indexed": true,
          "internalType": "address",
          "name": "owner",
          "type": "address"
        },
        {
          "indexed": true,
          "internalType": "address",
          "name": "operator",
          "type": "address"
        },
        {
          "indexed": false,
          "internalType": "bool",
          "name": "approved",
          "type": "bool"
        }
      ],
      "name": "ApprovalForAll",
      "type": "event"
    },
    {
      "anonymous": false,
      "inputs": [
        {
          "indexed": true,
          "internalType": "address",
          "name": "from",
          "type": "address"
        },
        {
          "indexed": true,
          "internalType": "address",
          "name": "to",
          "type": "address"
        },
        {
          "indexed": true,
          "internalType": "uint256",
          "name": "tokenId",
          "type": "uint256"
        }
      ],
      "name": "Transfer",
      "type": "event"
    },
    {
      "inputs": [
        {
          "internalType": "address",
          "name": "to",
          "type": "address"
        },
        {
          "internalType": "uint256",
          "name": "tokenId",
          "type": "uint256"
        }
      ],
      "name": "approve",
      "outputs": [],
      "stateMutability": "nonpayable",
      "type": "function"
    },
    {
      "inputs": [
        {
          "internalType": "address",
          "name": "owner",
          "type": "address"
        }
      ],
      "name": "balanceOf",
      "outputs": [
        {
          "internalType": "uint256",
          "name": "",
          "type": "uint256"
        }
      ],
      "stateMutability": "view",
      "type": "function",
      "constant": true
    },
    {
      "inputs": [
        {
          "internalType": "uint256",
          "name": "tokenId",
          "type": "uint256"
        }
      ],
      "name": "getApproved",
      "outputs": [
        {
          "internalType": "address",
          "name": "",
          "type": "address"
        }
      ],
      "stateMutability": "view",
      "type": "function",
      "constant": true
    },
    {
      "inputs": [
        {
          "internalType": "address",
          "name": "owner",
          "type": "address"
        },
        {
          "internalType": "address",
          "name": "operator",
          "type": "address"
        }
      ],
      "name": "isApprovedForAll",
      "outputs": [
        {
          "internalType": "bool",
          "name": "",
          "type": "bool"
        }
      ],
      "stateMutability": "view",
      "type": "function",
      "constant": true
    },
    {
      "inputs": [],
      "name": "name",
      "outputs": [
        {
          "internalType": "string",
          "name": "",
          "type": "string"
        }
      ],
      "stateMutability": "view",
      "type": "function",
      "constant": true
    },
    {
      "inputs": [],
      "name": "owner",
      "outputs": [
        {
          "internalType": "address",
          "name": "",
          "type": "address"
        }
      ],
      "stateMutability": "view",
      "type": "function",
      "constant": true
    },
    {
      "inputs": [
        {
          "internalType": "uint256",
          "name": "tokenId",
          "type": "uint256"
        }
      ],
      "name": "ownerOf",
      "outputs": [
        {
          "internalType": "address",
          "name": "",
          "type": "address"
        }
      ],
      "stateMutability": "view",
      "type": "function",
      "constant": true
    },
    {
      "inputs": [
        {
          "internalType": "address",
          "name": "from",
          "type": "address"
        },
        {
          "internalType": "address",
          "name": "to",
          "type": "address"
        },
        {
          "internalType": "uint256",
          "name": "tokenId",
          "type": "uint256"
        }
      ],
      "name": "safeTransferFrom",
      "outputs": [],
      "stateMutability": "nonpayable",
      "type": "function"
    },
    {
      "inputs": [
        {
          "internalType": "address",
          "name": "from",
          "type": "address"
        },
        {
          "internalType": "address",
          "name": "to",
          "type": "address"
        },
        {
          "internalType": "uint256",
          "name": "tokenId",
          "type": "uint256"
        },
        {
          "internalType": "bytes",
          "name": "data",
          "type": "bytes"
        }
      ],
      "name": "safeTransferFrom",
      "outputs": [],
      "stateMutability": "nonpayable",
      "type": "function"
    },
    {
      "inputs": [
        {
          "internalType": "address",
          "name": "operator",
          "type": "address"
        },
        {
          "internalType": "bool",
          "name": "approved",
          "type": "bool"
        }
      ],
      "name": "setApprovalForAll",
      "outputs": [],
      "stateMutability": "nonpayable",
      "type": "function"
    },
    {
      "inputs": [
        {
          "internalType": "bytes4",
          "name": "interfaceId",
          "type": "bytes4"
        }
      ],
      "name": "supportsInterface",
      "outputs": [
        {
          "internalType": "bool",
          "name": "",
          "type": "bool"
        }
      ],
      "stateMutability": "view",
      "type": "function",
      "constant": true
    },
    {
      "inputs": [],
      "name": "symbol",
      "outputs": [
        {
          "internalType": "string",
          "name": "",
          "type": "string"
        }
      ],
      "stateMutability": "view",
      "type": "function",
      "constant": true
    },
    {
      "inputs": [
        {
          "internalType": "uint256",
          "name": "tokenId",
          "type": "uint256"
        }
      ],
      "name": "tokenURI",
      "outputs": [
        {
          "internalType": "string",
          "name": "",
          "type": "string"
        }
      ],
      "stateMutability": "view",
      "type": "function",
      "constant": true
    },
    {
      "inputs": [
        {
          "internalType": "address",
          "name": "from",
          "type": "address"
        },
        {
          "internalType": "address",
          "name": "to",
          "type": "address"
        },
        {
          "internalType": "uint256",
          "name": "tokenId",
          "type": "uint256"
        }
      ],
      "name": "transferFrom",
      "outputs": [],
      "stateMutability": "nonpayable",
      "type": "function"
    },
    {
      "inputs": [
        {
          "internalType": "string",
          "name": "_tokenURI",
          "type": "string"
        }
      ],
      "name": "mintNft",
      "outputs": [
        {
          "internalType": "uint256",
          "name": "",
          "type": "uint256"
        }
      ],
      "stateMutability": "nonpayable",
      "type": "function"
    }
  ],
  "bytecode": "0x60806040523480156200001157600080fd5b506040518060400160405280600781526020017f536f726f757368000000000000000000000000000000000000000000000000008152506040518060400160405280600381526020017f535253000000000000000000000000000000000000000000000000000000000081525081600090816200008f919062000365565b508060019081620000a1919062000365565b50505033600860006101000a81548173ffffffffffffffffffffffffffffffffffffffff021916908373ffffffffffffffffffffffffffffffffffffffff1602179055506200044c565b600081519050919050565b7f4e487b7100000000000000000000000000000000000000000000000000000000600052604160045260246000fd5b7f4e487b7100000000000000000000000000000000000000000000000000000000600052602260045260246000fd5b600060028204905060018216806200016d57607f821691505b60208210810362000183576200018262000125565b5b50919050565b60008190508160005260206000209050919050565b60006020601f8301049050919050565b600082821b905092915050565b600060088302620001ed7fffffffffffffffffffffffffffffffffffffffffffffffffffffffffffffffff82620001ae565b620001f98683620001ae565b95508019841693508086168417925050509392505050565b6000819050919050565b6000819050919050565b600062000246620002406200023a8462000211565b6200021b565b62000211565b9050919050565b6000819050919050565b620002628362000225565b6200027a62000271826200024d565b848454620001bb565b825550505050565b600090565b6200029162000282565b6200029e81848462000257565b505050565b5b81811015620002c657620002ba60008262000287565b600181019050620002a4565b5050565b601f8211156200031557620002df8162000189565b620002ea846200019e565b81016020851015620002fa578190505b6200031262000309856200019e565b830182620002a3565b50505b505050565b600082821c905092915050565b60006200033a600019846008026200031a565b1980831691505092915050565b600062000355838362000327565b9150826002028217905092915050565b6200037082620000eb565b67ffffffffffffffff8111156200038c576200038b620000f6565b5b62000398825462000154565b620003a5828285620002ca565b600060209050601f831160018114620003dd5760008415620003c8578287015190505b620003d4858262000347565b86555062000444565b601f198416620003ed8662000189565b60005b828110156200041757848901518255600182019150602085019450602081019050620003f0565b8683101562000437578489015162000433601f89168262000327565b8355505b6001600288020188555050505b505050505050565b612d5c806200045c6000396000f3fe608060405234801561001057600080fd5b50600436106100f55760003560e01c806370a0823111610097578063b88d4fde11610066578063b88d4fde14610284578063c87b56dd146102a0578063da86f4a9146102d0578063e985e9c514610300576100f5565b806370a08231146101fc5780638da5cb5b1461022c57806395d89b411461024a578063a22cb46514610268576100f5565b8063095ea7b3116100d3578063095ea7b31461017857806323b872dd1461019457806342842e0e146101b05780636352211e146101cc576100f5565b806301ffc9a7146100fa57806306fdde031461012a578063081812fc14610148575b600080fd5b610114600480360381019061010f9190611b35565b610330565b6040516101219190611b7d565b60405180910390f35b610132610412565b60405161013f9190611c28565b60405180910390f35b610162600480360381019061015d9190611c80565b6104a4565b60405161016f9190611cee565b60405180910390f35b610192600480360381019061018d9190611d35565b6104ea565b005b6101ae60048036038101906101a99190611d75565b610601565b005b6101ca60048036038101906101c59190611d75565b610661565b005b6101e660048036038101906101e19190611c80565b610681565b6040516101f39190611cee565b60405180910390f35b61021660048036038101906102119190611dc8565b610707565b6040516102239190611e04565b60405180910390f35b6102346107be565b6040516102419190611cee565b60405180910390f35b6102526107e4565b60405161025f9190611c28565b60405180910390f35b610282600480360381019061027d9190611e4b565b610876565b005b61029e60048036038101906102999190611fc0565b61088c565b005b6102ba60048036038101906102b59190611c80565b6108ee565b6040516102c79190611c28565b60405180910390f35b6102ea60048036038101906102e591906120e4565b610a00565b6040516102f79190611e04565b60405180910390f35b61031a6004803603810190610315919061212d565b610ac7565b6040516103279190611b7d565b60405180910390f35b60007f80ac58cd000000000000000000000000000000000000000000000000000000007bffffffffffffffffffffffffffffffffffffffffffffffffffffffff1916827bffffffffffffffffffffffffffffffffffffffffffffffffffffffff191614806103fb57507f5b5e139f000000000000000000000000000000000000000000000000000000007bffffffffffffffffffffffffffffffffffffffffffffffffffffffff1916827bffffffffffffffffffffffffffffffffffffffffffffffffffffffff1916145b8061040b575061040a82610b5b565b5b9050919050565b6060600080546104219061219c565b80601f016020809104026020016040519081016040528092919081815260200182805461044d9061219c565b801561049a5780601f1061046f5761010080835404028352916020019161049a565b820191906000526020600020905b81548152906001019060200180831161047d57829003601f168201915b5050505050905090565b60006104af82610bc5565b6004600083815260200190815260200160002060009054906101000a900473ffffffffffffffffffffffffffffffffffffffff169050919050565b60006104f582610681565b90508073ffffffffffffffffffffffffffffffffffffffff168373ffffffffffffffffffffffffffffffffffffffff1603610565576040517f08c379a000000000000000000000000000000000000000000000000000000000815260040161055c9061223f565b60405180910390fd5b8073ffffffffffffffffffffffffffffffffffffffff16610584610c10565b73ffffffffffffffffffffffffffffffffffffffff1614806105b357506105b2816105ad610c10565b610ac7565b5b6105f2576040517f08c379a00000000000000000000000000000000000000000000000000000000081526004016105e9906122d1565b60405180910390fd5b6105fc8383610c18565b505050565b61061261060c610c10565b82610cd1565b610651576040517f08c379a000000000000000000000000000000000000000000000000000000000815260040161064890612363565b60405180910390fd5b61065c838383610d66565b505050565b61067c8383836040518060200160405280600081525061088c565b505050565b60008061068d8361105f565b9050600073ffffffffffffffffffffffffffffffffffffffff168173ffffffffffffffffffffffffffffffffffffffff16036106fe576040517f08c379a00000000000000000000000000000000000000000000000000000000081526004016106f5906123cf565b60405180910390fd5b80915050919050565b60008073ffffffffffffffffffffffffffffffffffffffff168273ffffffffffffffffffffffffffffffffffffffff1603610777576040517f08c379a000000000000000000000000000000000000000000000000000000000815260040161076e90612461565b60405180910390fd5b600360008373ffffffffffffffffffffffffffffffffffffffff1673ffffffffffffffffffffffffffffffffffffffff168152602001908152602001600020549050919050565b600860009054906101000a900473ffffffffffffffffffffffffffffffffffffffff1681565b6060600180546107f39061219c565b80601f016020809104026020016040519081016040528092919081815260200182805461081f9061219c565b801561086c5780601f106108415761010080835404028352916020019161086c565b820191906000526020600020905b81548152906001019060200180831161084f57829003601f168201915b5050505050905090565b610888610881610c10565b838361109c565b5050565b61089d610897610c10565b83610cd1565b6108dc576040517f08c379a00000000000000000000000000000000000000000000000000000000081526004016108d390612363565b60405180910390fd5b6108e884848484611208565b50505050565b60606108f982610bc5565b60006006600084815260200190815260200160002080546109199061219c565b80601f01602080910402602001604051908101604052809291908181526020018280546109459061219c565b80156109925780601f1061096757610100808354040283529160200191610992565b820191906000526020600020905b81548152906001019060200180831161097557829003601f168201915b5050505050905060006109a3611264565b905060008151036109b85781925050506109fb565b6000825111156109ed5780826040516020016109d59291906124bd565b604051602081830303815290604052925050506109fb565b6109f68461127b565b925050505b919050565b6000600860009054906101000a900473ffffffffffffffffffffffffffffffffffffffff1673ffffffffffffffffffffffffffffffffffffffff163373ffffffffffffffffffffffffffffffffffffffff1614610a92576040517f08c379a0000000000000000000000000000000000000000000000000000000008152600401610a8990612553565b60405180910390fd5b610a9c60076112e3565b6000610aa860076112f9565b9050610ab43382611307565b610abe8184611524565b80915050919050565b6000600560008473ffffffffffffffffffffffffffffffffffffffff1673ffffffffffffffffffffffffffffffffffffffff16815260200190815260200160002060008373ffffffffffffffffffffffffffffffffffffffff1673ffffffffffffffffffffffffffffffffffffffff16815260200190815260200160002060009054906101000a900460ff16905092915050565b60007f01ffc9a7000000000000000000000000000000000000000000000000000000007bffffffffffffffffffffffffffffffffffffffffffffffffffffffff1916827bffffffffffffffffffffffffffffffffffffffffffffffffffffffff1916149050919050565b610bce81611591565b610c0d576040517f08c379a0000000000000000000000000000000000000000000000000000000008152600401610c04906123cf565b60405180910390fd5b50565b600033905090565b816004600083815260200190815260200160002060006101000a81548173ffffffffffffffffffffffffffffffffffffffff021916908373ffffffffffffffffffffffffffffffffffffffff160217905550808273ffffffffffffffffffffffffffffffffffffffff16610c8b83610681565b73ffffffffffffffffffffffffffffffffffffffff167f8c5be1e5ebec7d5bd14f71427d1e84f3dd0314c0f7b2291e5b200ac8c7c3b92560405160405180910390a45050565b600080610cdd83610681565b90508073ffffffffffffffffffffffffffffffffffffffff168473ffffffffffffffffffffffffffffffffffffffff161480610d1f5750610d1e8185610ac7565b5b80610d5d57508373ffffffffffffffffffffffffffffffffffffffff16610d45846104a4565b73ffffffffffffffffffffffffffffffffffffffff16145b91505092915050565b8273ffffffffffffffffffffffffffffffffffffffff16610d8682610681565b73ffffffffffffffffffffffffffffffffffffffff1614610ddc576040517f08c379a0000000000000000000000000000000000000000000000000000000008152600401610dd3906125e5565b60405180910390fd5b600073ffffffffffffffffffffffffffffffffffffffff168273ffffffffffffffffffffffffffffffffffffffff1603610e4b576040517f08c379a0000000000000000000000000000000000000000000000000000000008152600401610e4290612677565b60405180910390fd5b610e5883838360016115d2565b8273ffffffffffffffffffffffffffffffffffffffff16610e7882610681565b73ffffffffffffffffffffffffffffffffffffffff1614610ece576040517f08c379a0000000000000000000000000000000000000000000000000000000008152600401610ec5906125e5565b60405180910390fd5b6004600082815260200190815260200160002060006101000a81549073ffffffffffffffffffffffffffffffffffffffff02191690556001600360008573ffffffffffffffffffffffffffffffffffffffff1673ffffffffffffffffffffffffffffffffffffffff168152602001908152602001600020600082825403925050819055506001600360008473ffffffffffffffffffffffffffffffffffffffff1673ffffffffffffffffffffffffffffffffffffffff16815260200190815260200160002060008282540192505081905550816002600083815260200190815260200160002060006101000a81548173ffffffffffffffffffffffffffffffffffffffff021916908373ffffffffffffffffffffffffffffffffffffffff160217905550808273ffffffffffffffffffffffffffffffffffffffff168473ffffffffffffffffffffffffffffffffffffffff167fddf252ad1be2c89b69c2b068fc378daa952ba7f163c4a11628f55a4df523b3ef60405160405180910390a461105a83838360016116f8565b505050565b60006002600083815260200190815260200160002060009054906101000a900473ffffffffffffffffffffffffffffffffffffffff169050919050565b8173ffffffffffffffffffffffffffffffffffffffff168373ffffffffffffffffffffffffffffffffffffffff160361110a576040517f08c379a0000000000000000000000000000000000000000000000000000000008152600401611101906126e3565b60405180910390fd5b80600560008573ffffffffffffffffffffffffffffffffffffffff1673ffffffffffffffffffffffffffffffffffffffff16815260200190815260200160002060008473ffffffffffffffffffffffffffffffffffffffff1673ffffffffffffffffffffffffffffffffffffffff16815260200190815260200160002060006101000a81548160ff0219169083151502179055508173ffffffffffffffffffffffffffffffffffffffff168373ffffffffffffffffffffffffffffffffffffffff167f17307eab39ab6107e8899845ad3d59bd9653f200f220920489ca2b5937696c31836040516111fb9190611b7d565b60405180910390a3505050565b611213848484610d66565b61121f848484846116fe565b61125e576040517f08c379a000000000000000000000000000000000000000000000000000000000815260040161125590612775565b60405180910390fd5b50505050565b606060405180602001604052806000815250905090565b606061128682610bc5565b6000611290611264565b905060008151116112b057604051806020016040528060008152506112db565b806112ba84611885565b6040516020016112cb9291906124bd565b6040516020818303038152906040525b915050919050565b6001816000016000828254019250508190555050565b600081600001549050919050565b600073ffffffffffffffffffffffffffffffffffffffff168273ffffffffffffffffffffffffffffffffffffffff1603611376576040517f08c379a000000000000000000000000000000000000000000000000000000000815260040161136d906127e1565b60405180910390fd5b61137f81611591565b156113bf576040517f08c379a00000000000000000000000000000000000000000000000000000000081526004016113b69061284d565b60405180910390fd5b6113cd6000838360016115d2565b6113d681611591565b15611416576040517f08c379a000000000000000000000000000000000000000000000000000000000815260040161140d9061284d565b60405180910390fd5b6001600360008473ffffffffffffffffffffffffffffffffffffffff1673ffffffffffffffffffffffffffffffffffffffff16815260200190815260200160002060008282540192505081905550816002600083815260200190815260200160002060006101000a81548173ffffffffffffffffffffffffffffffffffffffff021916908373ffffffffffffffffffffffffffffffffffffffff160217905550808273ffffffffffffffffffffffffffffffffffffffff16600073ffffffffffffffffffffffffffffffffffffffff167fddf252ad1be2c89b69c2b068fc378daa952ba7f163c4a11628f55a4df523b3ef60405160405180910390a46115206000838360016116f8565b5050565b61152d82611591565b61156c576040517f08c379a0000000000000000000000000000000000000000000000000000000008152600401611563906128df565b60405180910390fd5b8060066000848152602001908152602001600020908161158c9190612aab565b505050565b60008073ffffffffffffffffffffffffffffffffffffffff166115b38361105f565b73ffffffffffffffffffffffffffffffffffffffff1614159050919050565b60018111156116f257600073ffffffffffffffffffffffffffffffffffffffff168473ffffffffffffffffffffffffffffffffffffffff16146116665780600360008673ffffffffffffffffffffffffffffffffffffffff1673ffffffffffffffffffffffffffffffffffffffff168152602001908152602001600020600082825461165e9190612bac565b925050819055505b600073ffffffffffffffffffffffffffffffffffffffff168373ffffffffffffffffffffffffffffffffffffffff16146116f15780600360008573ffffffffffffffffffffffffffffffffffffffff1673ffffffffffffffffffffffffffffffffffffffff16815260200190815260200160002060008282546116e99190612be0565b925050819055505b5b50505050565b50505050565b600061171f8473ffffffffffffffffffffffffffffffffffffffff16611953565b15611878578373ffffffffffffffffffffffffffffffffffffffff1663150b7a02611748610c10565b8786866040518563ffffffff1660e01b815260040161176a9493929190612c69565b6020604051808303816000875af19250505080156117a657506040513d601f19601f820116820180604052508101906117a39190612cca565b60015b611828573d80600081146117d6576040519150601f19603f3d011682016040523d82523d6000602084013e6117db565b606091505b506000815103611820576040517f08c379a000000000000000000000000000000000000000000000000000000000815260040161181790612775565b60405180910390fd5b805181602001fd5b63150b7a0260e01b7bffffffffffffffffffffffffffffffffffffffffffffffffffffffff1916817bffffffffffffffffffffffffffffffffffffffffffffffffffffffff19161491505061187d565b600190505b949350505050565b60606000600161189484611976565b01905060008167ffffffffffffffff8111156118b3576118b2611e95565b5b6040519080825280601f01601f1916602001820160405280156118e55781602001600182028036833780820191505090505b509050600082602001820190505b600115611948578080600190039150507f3031323334353637383961626364656600000000000000000000000000000000600a86061a8153600a858161193c5761193b612cf7565b5b049450600085036118f3575b819350505050919050565b6000808273ffffffffffffffffffffffffffffffffffffffff163b119050919050565b600080600090507a184f03e93ff9f4daa797ed6e38ed64bf6a1f01000000000000000083106119d4577a184f03e93ff9f4daa797ed6e38ed64bf6a1f01000000000000000083816119ca576119c9612cf7565b5b0492506040810190505b6d04ee2d6d415b85acef81000000008310611a11576d04ee2d6d415b85acef81000000008381611a0757611a06612cf7565b5b0492506020810190505b662386f26fc100008310611a4057662386f26fc100008381611a3657611a35612cf7565b5b0492506010810190505b6305f5e1008310611a69576305f5e1008381611a5f57611a5e612cf7565b5b0492506008810190505b6127108310611a8e576127108381611a8457611a83612cf7565b5b0492506004810190505b60648310611ab15760648381611aa757611aa6612cf7565b5b0492506002810190505b600a8310611ac0576001810190505b80915050919050565b6000604051905090565b600080fd5b600080fd5b60007fffffffff0000000000000000000000000000000000000000000000000000000082169050919050565b611b1281611add565b8114611b1d57600080fd5b50565b600081359050611b2f81611b09565b92915050565b600060208284031215611b4b57611b4a611ad3565b5b6000611b5984828501611b20565b91505092915050565b60008115159050919050565b611b7781611b62565b82525050565b6000602082019050611b926000830184611b6e565b92915050565b600081519050919050565b600082825260208201905092915050565b60005b83811015611bd2578082015181840152602081019050611bb7565b60008484015250505050565b6000601f19601f8301169050919050565b6000611bfa82611b98565b611c048185611ba3565b9350611c14818560208601611bb4565b611c1d81611bde565b840191505092915050565b60006020820190508181036000830152611c428184611bef565b905092915050565b6000819050919050565b611c5d81611c4a565b8114611c6857600080fd5b50565b600081359050611c7a81611c54565b92915050565b600060208284031215611c9657611c95611ad3565b5b6000611ca484828501611c6b565b91505092915050565b600073ffffffffffffffffffffffffffffffffffffffff82169050919050565b6000611cd882611cad565b9050919050565b611ce881611ccd565b82525050565b6000602082019050611d036000830184611cdf565b92915050565b611d1281611ccd565b8114611d1d57600080fd5b50565b600081359050611d2f81611d09565b92915050565b60008060408385031215611d4c57611d4b611ad3565b5b6000611d5a85828601611d20565b9250506020611d6b85828601611c6b565b9150509250929050565b600080600060608486031215611d8e57611d8d611ad3565b5b6000611d9c86828701611d20565b9350506020611dad86828701611d20565b9250506040611dbe86828701611c6b565b9150509250925092565b600060208284031215611dde57611ddd611ad3565b5b6000611dec84828501611d20565b91505092915050565b611dfe81611c4a565b82525050565b6000602082019050611e196000830184611df5565b92915050565b611e2881611b62565b8114611e3357600080fd5b50565b600081359050611e4581611e1f565b92915050565b60008060408385031215611e6257611e61611ad3565b5b6000611e7085828601611d20565b9250506020611e8185828601611e36565b9150509250929050565b600080fd5b600080fd5b7f4e487b7100000000000000000000000000000000000000000000000000000000600052604160045260246000fd5b611ecd82611bde565b810181811067ffffffffffffffff82111715611eec57611eeb611e95565b5b80604052505050565b6000611eff611ac9565b9050611f0b8282611ec4565b919050565b600067ffffffffffffffff821115611f2b57611f2a611e95565b5b611f3482611bde565b9050602081019050919050565b82818337600083830152505050565b6000611f63611f5e84611f10565b611ef5565b905082815260208101848484011115611f7f57611f7e611e90565b5b611f8a848285611f41565b509392505050565b600082601f830112611fa757611fa6611e8b565b5b8135611fb7848260208601611f50565b91505092915050565b60008060008060808587031215611fda57611fd9611ad3565b5b6000611fe887828801611d20565b9450506020611ff987828801611d20565b935050604061200a87828801611c6b565b925050606085013567ffffffffffffffff81111561202b5761202a611ad8565b5b61203787828801611f92565b91505092959194509250565b600067ffffffffffffffff82111561205e5761205d611e95565b5b61206782611bde565b9050602081019050919050565b600061208761208284612043565b611ef5565b9050828152602081018484840111156120a3576120a2611e90565b5b6120ae848285611f41565b509392505050565b600082601f8301126120cb576120ca611e8b565b5b81356120db848260208601612074565b91505092915050565b6000602082840312156120fa576120f9611ad3565b5b600082013567ffffffffffffffff81111561211857612117611ad8565b5b612124848285016120b6565b91505092915050565b6000806040838503121561214457612143611ad3565b5b600061215285828601611d20565b925050602061216385828601611d20565b9150509250929050565b7f4e487b7100000000000000000000000000000000000000000000000000000000600052602260045260246000fd5b600060028204905060018216806121b457607f821691505b6020821081036121c7576121c661216d565b5b50919050565b7f4552433732313a20617070726f76616c20746f2063757272656e74206f776e6560008201527f7200000000000000000000000000000000000000000000000000000000000000602082015250565b6000612229602183611ba3565b9150612234826121cd565b604082019050919050565b600060208201905081810360008301526122588161221c565b9050919050565b7f4552433732313a20617070726f76652063616c6c6572206973206e6f7420746f60008201527f6b656e206f776e6572206f7220617070726f76656420666f7220616c6c000000602082015250565b60006122bb603d83611ba3565b91506122c68261225f565b604082019050919050565b600060208201905081810360008301526122ea816122ae565b9050919050565b7f4552433732313a2063616c6c6572206973206e6f7420746f6b656e206f776e6560008201527f72206f7220617070726f76656400000000000000000000000000000000000000602082015250565b600061234d602d83611ba3565b9150612358826122f1565b604082019050919050565b6000602082019050818103600083015261237c81612340565b9050919050565b7f4552433732313a20696e76616c696420746f6b656e2049440000000000000000600082015250565b60006123b9601883611ba3565b91506123c482612383565b602082019050919050565b600060208201905081810360008301526123e8816123ac565b9050919050565b7f4552433732313a2061646472657373207a65726f206973206e6f74206120766160008201527f6c6964206f776e65720000000000000000000000000000000000000000000000602082015250565b600061244b602983611ba3565b9150612456826123ef565b604082019050919050565b6000602082019050818103600083015261247a8161243e565b9050919050565b600081905092915050565b600061249782611b98565b6124a18185612481565b93506124b1818560208601611bb4565b80840191505092915050565b60006124c9828561248c565b91506124d5828461248c565b91508190509392505050565b7f596f7520617265206e6f7420746865206f776e6572206f66207468697320636f60008201527f6e74726163740000000000000000000000000000000000000000000000000000602082015250565b600061253d602683611ba3565b9150612548826124e1565b604082019050919050565b6000602082019050818103600083015261256c81612530565b9050919050565b7f4552433732313a207472616e736665722066726f6d20696e636f72726563742060008201527f6f776e6572000000000000000000000000000000000000000000000000000000602082015250565b60006125cf602583611ba3565b91506125da82612573565b604082019050919050565b600060208201905081810360008301526125fe816125c2565b9050919050565b7f4552433732313a207472616e7366657220746f20746865207a65726f2061646460008201527f7265737300000000000000000000000000000000000000000000000000000000602082015250565b6000612661602483611ba3565b915061266c82612605565b604082019050919050565b6000602082019050818103600083015261269081612654565b9050919050565b7f4552433732313a20617070726f766520746f2063616c6c657200000000000000600082015250565b60006126cd601983611ba3565b91506126d882612697565b602082019050919050565b600060208201905081810360008301526126fc816126c0565b9050919050565b7f4552433732313a207472616e7366657220746f206e6f6e20455243373231526560008201527f63656976657220696d706c656d656e7465720000000000000000000000000000602082015250565b600061275f603283611ba3565b915061276a82612703565b604082019050919050565b6000602082019050818103600083015261278e81612752565b9050919050565b7f4552433732313a206d696e7420746f20746865207a65726f2061646472657373600082015250565b60006127cb602083611ba3565b91506127d682612795565b602082019050919050565b600060208201905081810360008301526127fa816127be565b9050919050565b7f4552433732313a20746f6b656e20616c7265616479206d696e74656400000000600082015250565b6000612837601c83611ba3565b915061284282612801565b602082019050919050565b600060208201905081810360008301526128668161282a565b9050919050565b7f45524337323155524953746f726167653a2055524920736574206f66206e6f6e60008201527f6578697374656e7420746f6b656e000000000000000000000000000000000000602082015250565b60006128c9602e83611ba3565b91506128d48261286d565b604082019050919050565b600060208201905081810360008301526128f8816128bc565b9050919050565b60008190508160005260206000209050919050565b60006020601f8301049050919050565b600082821b905092915050565b6000600883026129617fffffffffffffffffffffffffffffffffffffffffffffffffffffffffffffffff82612924565b61296b8683612924565b95508019841693508086168417925050509392505050565b6000819050919050565b60006129a86129a361299e84611c4a565b612983565b611c4a565b9050919050565b6000819050919050565b6129c28361298d565b6129d66129ce826129af565b848454612931565b825550505050565b600090565b6129eb6129de565b6129f68184846129b9565b505050565b5b81811015612a1a57612a0f6000826129e3565b6001810190506129fc565b5050565b601f821115612a5f57612a30816128ff565b612a3984612914565b81016020851015612a48578190505b612a5c612a5485612914565b8301826129fb565b50505b505050565b600082821c905092915050565b6000612a8260001984600802612a64565b1980831691505092915050565b6000612a9b8383612a71565b9150826002028217905092915050565b612ab482611b98565b67ffffffffffffffff811115612acd57612acc611e95565b5b612ad7825461219c565b612ae2828285612a1e565b600060209050601f831160018114612b155760008415612b03578287015190505b612b0d8582612a8f565b865550612b75565b601f198416612b23866128ff565b60005b82811015612b4b57848901518255600182019150602085019450602081019050612b26565b86831015612b685784890151612b64601f891682612a71565b8355505b6001600288020188555050505b505050505050565b7f4e487b7100000000000000000000000000000000000000000000000000000000600052601160045260246000fd5b6000612bb782611c4a565b9150612bc283611c4a565b9250828203905081811115612bda57612bd9612b7d565b5b92915050565b6000612beb82611c4a565b9150612bf683611c4a565b9250828201905080821115612c0e57612c0d612b7d565b5b92915050565b600081519050919050565b600082825260208201905092915050565b6000612c3b82612c14565b612c458185612c1f565b9350612c55818560208601611bb4565b612c5e81611bde565b840191505092915050565b6000608082019050612c7e6000830187611cdf565b612c8b6020830186611cdf565b612c986040830185611df5565b8181036060830152612caa8184612c30565b905095945050505050565b600081519050612cc481611b09565b92915050565b600060208284031215612ce057612cdf611ad3565b5b6000612cee84828501612cb5565b91505092915050565b7f4e487b7100000000000000000000000000000000000000000000000000000000600052601260045260246000fdfea2646970667358221220870fec869e45727e4fbe9953877ef20c78d86919d642e88a7fd46ac726e075b464736f6c63430008110033",
  "immutableReferences": {},
  "source": "// SPDX-License-Identifier: MIT\npragma solidity ^0.8.0;\n\nimport \"@openzeppelin/contracts/token/ERC721/extensions/ERC721URIStorage.sol\";\nimport \"@openzeppelin/contracts/utils/Counters.sol\";\n\n\ncontract NftCollection is ERC721URIStorage {\n    \n    using Counters for Counters.Counter;\n    Counters.Counter private _tokenIds;\n\n    address public owner;\n\n    constructor() ERC721(\"Soroush\", \"SRS\") {\n        owner = msg.sender;\n    }\n\n    modifier onlyOwner() {\n        require(msg.sender == owner, \"You are not the owner of this contract\");\n        _;\n    }\n\n    function mintNft(string memory _tokenURI) public onlyOwner returns (uint) {\n        _tokenIds.increment();\n        uint256 newItemId = _tokenIds.current();\n        _mint(msg.sender , newItemId);\n        _setTokenURI(newItemId , _tokenURI);\n        return newItemId;\n    }\n\n\n}\n",
  "sourcePath": "/Users/istore/Desktop/SmartContracts/contracts/NftCollection.sol",
  "compiler": {
    "name": "solc",
    "version": "0.8.17+commit.8df45f5f.Emscripten.clang"
  },
  "schemaVersion": "3.4.3",
  "updatedAt": "2023-01-19T19:54:55.666Z",
  "networkType": "ethereum",
  "devdoc": {
    "kind": "dev",
    "methods": {
      "approve(address,uint256)": {
        "details": "See {IERC721-approve}."
      },
      "balanceOf(address)": {
        "details": "See {IERC721-balanceOf}."
      },
      "getApproved(uint256)": {
        "details": "See {IERC721-getApproved}."
      },
      "isApprovedForAll(address,address)": {
        "details": "See {IERC721-isApprovedForAll}."
      },
      "name()": {
        "details": "See {IERC721Metadata-name}."
      },
      "ownerOf(uint256)": {
        "details": "See {IERC721-ownerOf}."
      },
      "safeTransferFrom(address,address,uint256)": {
        "details": "See {IERC721-safeTransferFrom}."
      },
      "safeTransferFrom(address,address,uint256,bytes)": {
        "details": "See {IERC721-safeTransferFrom}."
      },
      "setApprovalForAll(address,bool)": {
        "details": "See {IERC721-setApprovalForAll}."
      },
      "supportsInterface(bytes4)": {
        "details": "See {IERC165-supportsInterface}."
      },
      "symbol()": {
        "details": "See {IERC721Metadata-symbol}."
      },
      "tokenURI(uint256)": {
        "details": "See {IERC721Metadata-tokenURI}."
      },
      "transferFrom(address,address,uint256)": {
        "details": "See {IERC721-transferFrom}."
      }
    },
    "version": 1
  },
  "userdoc": {
    "kind": "user",
    "methods": {},
    "version": 1
  }
}